:100000000C9463000C94B0020C9489020C948B0045
:100010000C948B000C948B000C948B000C948B0034
:100020000C948B000C948B000C948B000C948B0024
:100030000C948B000C948B000C948B000C948B0014
:100040000C943F020C948B000C948B000C948B004E
:100050000C948B000C948B000C948B000C948B00F4
:100060000C948B000C948B000000000023002600F1
:10007000290000000008000201000003040700003E
:1000800000000000000000000000250028002B00F8
:1000900000000000240027002A00040404040404D3
:1000A0000404020202020202030303030303010227
:1000B00004081020408001020408102001020408F6
:1000C0001020D703F70411241FBECFEFD8E0DEBF06
:1000D000CDBF21E0AAE1B1E001C01D92AF34B2076B
:1000E000E1F711E0A0E0B1E0E6E8FEE002C0059033
:1000F0000D92AA31B107D9F710E0C2E6D0E004C0F2
:100100002197FE010E943405C136D107C9F70E942C
:10011000D7020C9436070C94000090E0FC01E255E5
:10012000FF4F2491FC01E656FF4F8491882399F0FC
:1001300090E0880F991FFC01E057FF4FA591B49103
:10014000FC01EA57FF4F859194918FB7F894EC9199
:10015000E22BEC938FBF0895833081F028F4813037
:1001600099F08230A1F008958730A9F08830B9F075
:100170008430D1F4809180008F7D03C08091800015
:100180008F7780938000089584B58F7702C084B5FF
:100190008F7D84BD08958091B0008F7703C08091DA
:1001A000B0008F7D8093B0000895CF93DF93282F08
:1001B00030E0F901EE58FF4F8491F901E255FF4F0D
:1001C000D491F901E656FF4FC491CC2391F08111EF
:1001D0000E94AC00EC2FF0E0EE0FFF1FE859FF4F3C
:1001E000A591B491EC91ED2381E090E021F480E0C1
:1001F00002C080E090E0DF91CF9108951F93CF93EC
:10020000DF93282F30E0F901EE58FF4F8491F90178
:10021000E255FF4FD491F901E656FF4FC491CC232C
:10022000C1F0162F81110E94AC00EC2FF0E0EE0F10
:10023000FF1FEA57FF4FA591B4919FB7F894111192
:1002400004C08C91D095D82302C0EC91DE2BDC93B6
:100250009FBFDF91CF911F91089585E00E94D50047
:1002600061E0892B09F060E085E00E94FE0081E0FA
:1002700090E0909341018093400108950895CF92BA
:10028000DF92EF92FF920F931F93CF93DF936C0156
:100290007A018B01C0E0D0E0CE15DF0581F0D801F6
:1002A0006D918D01D601ED91FC910190F081E02DD1
:1002B000C6010995892B11F02196EECF7E01C70169
:1002C000DF91CF911F910F91FF90EF90DF90CF9032
:1002D0000895CF93DF93EC0160E08E810E94FE00D1
:1002E00061E08E810E94FE0060E08E810E94FE002F
:1002F0008BE891E00197F1F7DF91CF910895CF92CC
:10030000DF92EF92FF920F931F93CF93DF936C01D5
:100310007C0187E0E80EF11CC0E0D0E0062F10E081
:10032000B8010C2E02C0759567950A94E2F76170CA
:10033000F70181917F010E94FE002196C430D10512
:1003400079F7C601DF91CF911F910F91FF90EF9048
:10035000DF90CF900C946901CF92DF92EF92FF92E1
:100360000F931F93CF93DF93EC01F62E642F8C81B4
:100370000E94FE008D818F3F19F060E00E94FE0018
:100380008F850F2D10E084FF25C06E0187E0C80E19
:10039000D11CE12CF12CB8010E2C02C0759567958B
:1003A0000A94E2F76170F60181916F010E94FE00EC
:1003B000FFEFEF1AFF0A88E0E816F10461F7CE01BB
:1003C000DF91CF911F910F91FF90EF90DF90CF9031
:1003D0000C946901B80184E0759567958A95E1F7F9
:1003E000CE010E947F016F2DCE01DF91CF911F9131
:1003F0000F91FF90EF90DF90CF900C947F0141E040
:100400000E94AC0181E090E00895089580E090E0C2
:10041000089585E00E94D50061E0892B09F060E035
:1004200085E00E94FE0080913E0190913F01892B62
:1004300079F481E090E090934101809340018091B4
:100440001A0190911B01019690931B0180931A0150
:1004500080911A0190911B01CC9771F48DE00E945C
:10046000D50061E0892B09F060E08DE00E94FE007C
:1004700010921B0110921A0108950E9421071F92E9
:100480000F920FB60F9211242F933F938F939F9348
:10049000AF93BF938091470190914801A09149018A
:1004A000B0914A013091460123E0230F2D3720F40B
:1004B0000196A11DB11D05C026E8230F0296A11DBE
:1004C000B11D209346018093470190934801A0936A
:1004D0004901B0934A018091420190914301A0915A
:1004E0004401B09145010196A11DB11D80934201C7
:1004F00090934301A0934401B0934501BF91AF9104
:100500009F918F913F912F910F900FBE0F901F9051
:1005100018951F920F920FB60F9211242F933F93AD
:100520004F935F936F937F938F939F93AF93BF93FB
:10053000EF93FF93E0910201F09103010995FF9180
:10054000EF91BF91AF919F918F917F916F915F914B
:100550004F913F912F910F900FBE0F901F901895C4
:100560001F920F920FB60F9211242F933F934F9328
:100570005F936F937F938F939F93AF93BF93EF930B
:10058000FF93E0910001F09101010995FF91EF9136
:10059000BF91AF919F918F917F916F915F914F919B
:1005A0003F912F910F900FBE0F901F901895789448
:1005B00084B5826084BD84B5816084BD85B5826068
:1005C00085BD85B5816085BD80916E008160809319
:1005D0006E00109281008091810082608093810082
:1005E0008091810081608093810080918000816092
:1005F000809380008091B10084608093B1008091ED
:10060000B00081608093B00080917A008460809314
:100610007A0080917A00826080937A0080917A00DB
:10062000816080937A0080917A00806880937A005C
:100630001092C10086E00E948D0087E00E948D002C
:1006400088E00E948D0085E00E948D008DE00E9470
:100650008D008DE291E090930101809300018091E3
:1006600069008C7F826080936900E89A89E092E05B
:10067000909303018093020180916900837F8860D9
:1006800080936900E99ACFE5D0E041E4D42E0BE4F1
:1006900010E050E0E52E50E0F52E80914001909161
:1006A00041010197E9F480910401909105018230A4
:1006B000910538F0880F991F880F991F05970197AA
:1006C000F1F761E087E00E94FE00CE010197F1F7AB
:1006D00060E087E00E94FE0010924101109240010C
:1006E00080913E0190913F010197E9F410923F0102
:1006F00010923E0180910401909105018230910594
:1007000038F0880F991F880F991F05970197F1F707
:1007100061E088E00E94FE00CE010197F1F760E001
:1007200088E00E94FE0080913A0190913B01A091E7
:100730003C01B0913D010196A11DB11D80933A018C
:1007400090933B01A0933C01B0933D014497A105D8
:10075000B10531F5D0927C0080917A00806480935D
:100760007A0080917A0086FDFCCF809178002091FC
:100770007900F8013197F1F790E0922B47E0489F1C
:100780009001499F300D11243093050120930401FD
:1007900010923A0110923B0110923C0110923D01DF
:1007A000E114F10409F479CF0E94000076CFCF93D1
:1007B000DF9310923501109234011092370110929C
:1007C0003601109239011092380161E070E080E04A
:1007D00090E00E945B06009791F090933501809322
:1007E0003401109237011092360120913801309176
:1007F0003901232B09F0EEC0FC011082EBC080917F
:10080000340190913501009711F00E94D2051092A9
:100810003501109234011092390110923801109272
:1008200037011092360110921F0110921E0180E1D3
:1008300091E090931D0180931C018CE08093200136
:100840008FEF809321018BE0809322018AE08093D7
:10085000230189E08093240188E08093250184E0CE
:1008600080932601109227011092280110922901ED
:1008700010922A0110922B0181E080932F01109297
:10088000300180E48093310180E18093320180E582
:10089000809333018CE00E948D00809121018F3F75
:1008A00011F00E948D00809122010E948D00CCE108
:1008B000D1E09E012C51314080912B0184FD03C079
:1008C00084E090E002C088E090E021962817390784
:1008D00024F48E810E948D00ECCF8BE39DE0019784
:1008E000F1F760E0809120010E94FE0060E08091BD
:1008F00022010E94FE00809121018F3F19F060E0EB
:100900000E94FE0060912B0164FD20C063E08CE139
:1009100091E00E947F01CBE4D6E4CE010197F1F78C
:1009200063E08CE191E00E947F012197F1F763E0A1
:100930008CE191E00E947F0183E592E00197F1F75D
:1009400062E08CE191E00E947F011EC0606240E0A5
:100950008CE191E00E94AC018BE496E40197F1F701
:1009600060912B01606240E08CE191E00E94AC015B
:1009700083E592E00197F1F760912B01606240E01E
:100980008CE191E00E94AC0160912B01606240E03B
:100990008CE191E00E94AC0184E080932C0140E066
:1009A0006CE08CE191E00E94AC0140E061E08CE100
:1009B00091E00E94AC018BE39FE10197F1F782E0A7
:1009C00080932D0140E066E08CE191E0DF91CF91D2
:1009D0000C94AC01109239011092380168E171E079
:1009E00080913401909135010E942F071CCF809196
:1009F0003401909135010C94D2052F923F924F9281
:100A00005F926F927F928F929F92AF92BF92CF929E
:100A1000DF92EF92FF920F931F93CF93DF93CDB7A7
:100A2000DEB7CA1BDB0B0FB6F894DEBF0FBECDBF1F
:100A300009942A88398848885F846E847D848C84F0
:100A40009B84AA84B984C884DF80EE80FD800C81F9
:100A50001B81AA81B981CE0FD11D0FB6F894DEBFDC
:100A60000FBECDBFED010895EE0FFF1F0590F4916D
:100A7000E02D09940F931F93CF93DF93823091055C
:100A800010F482E090E0E0914D01F0914E0120E001
:100A900030E0A0E0B0E0309719F14081518102814F
:100AA000138148175907C8F08417950769F4109700
:100AB00031F012960C93129713961C9327C0009353
:100AC0004D0110934E0122C02115310519F0421736
:100AD000530718F49A01BD01EF01DF01F801DBCFE4
:100AE00021153105F9F0281B390B2430310580F42C
:100AF0008A819B816115710521F0FB0193838283BB
:100B000004C090934E0180934D01FE01329644C083
:100B1000FE01E20FF31F8193919322503109398333
:100B200028833AC020914B0130914C01232B41F492
:100B3000209108013091090130934C0120934B0121
:100B400020910601309107012115310541F42DB79F
:100B50003EB740910A0150910B01241B350BE091E7
:100B60004B01F0914C01E217F307A0F42E1B3F0B51
:100B70002817390778F0AC014E5F5F4F241735070F
:100B800048F04E0F5F1F50934C0140934B018193EF
:100B9000919302C0E0E0F0E0CF01DF91CF911F918F
:100BA0000F910895CF93DF93009709F481C0FC0162
:100BB000329713821282A0914D01B0914E0110978D
:100BC00081F420813181820F931F20914B0130915C
:100BD0004C012817390751F5F0934C01E0934B0174
:100BE00067C0ED0120E030E0CE17DF0740F44A8116
:100BF0005B819E0141155105F1F0EA01F5CFD383E8
:100C0000C28340815181840F951FC817D90759F4B9
:100C100088819981840F951F0296918380838A81B0
:100C20009B81938382832115310529F4F0934E0132
:100C3000E0934D013DC0E901FB83EA83499159915D
:100C4000C40FD51FEC17FD0761F480819181840FDB
:100C5000951F0296E90199838883828193819B8302
:100C60008A83E0E0F0E012968D919C9113970097B3
:100C700019F0FD01DC01F7CF8D919C9111979D0139
:100C80002E5F3F4F820F931F20914B0130914C01FB
:100C90002817390769F4309729F410924E01109201
:100CA0004D0102C013821282B0934C01A0934B01FC
:100CB000DF91CF910895A0E0B0E0E1E6F6E00C947A
:100CC0000105EC01009721F4CB010E943A05B4C064
:100CD000FC01E60FF71F9C0122503109E217F307D0
:100CE00008F4A8C0D9010D911C9111970617170798
:100CF000B0F00530110508F49BC0C80104978617B1
:100D0000970708F495C002501109061B170B0193B1
:100D100011936D937C93CF010E94D20589C05B0132
:100D2000A01AB10A4C01800E911EA0914D01B09104
:100D30004E01612C712CE12CF12C109709F446C066
:100D40008D919C911197A815B905B1F56C0142E000
:100D5000C40ED11CCA14DB0478F14C018A189B081C
:100D6000640142E0C40ED11C1296BC9012971396F7
:100D7000AC91B5E0CB16D10440F0B282A38391824E
:100D80008082D9016D937C9309C00E5F1F4F800F45
:100D9000911FF90191838083EB2DFA2FE114F10467
:100DA00031F0D7011396FC93EE93129741C0F09364
:100DB0004E01E0934D013CC06816790608F43C01F1
:100DC0007D0112960D90BC91A02DB7CF80914B0163
:100DD00090914C0188169906E1F466167706C8F4DE
:100DE0008091060190910701009741F48DB79EB75D
:100DF00040910A0150910B01841B950BE817F907EC
:100E0000C8F4F0934C01E0934B01F90171836083C6
:100E10000FC0CB010E943A057C01009759F0A80150
:100E2000BE010E942607CE010E94D205C70104C060
:100E3000CE0102C080E090E0CDB7DEB7EEE00C94CA
:100E40001D0581E090E0F8940C943607FB01DC016D
:100E500002C001900D9241505040D8F70895FB0117
:100E6000DC0101900D920020E1F7089510E0C2E648
:100E7000D0E004C0FE010E9434052196C336D1079C
:060E8000C9F7F894FFCF52
:100E86003E013E01300200004F01800000000000DC
:0A0E9600FF013F0106020502000003
:00000001FF
