:100000000C9435000C945D000C945D000C945D0024
:100010000C945D000C945D000C945D000C945D00EC
:100020000C945D000C945D000C945D000C945D00DC
:100030000C945D000C945D000C945D000C945D00CC
:100040000C944B030C945D000C9419030C94F30274
:100050000C945D000C945D000C945D000C945D00AC
:100060000C945D000C945D00DF0411241FBECFEFE3
:10007000D8E0DEBFCDBF11E0A0E0B1E0E4EEFEE0ED
:1000800002C005900D92A232B107D9F721E0A2E299
:10009000B1E001C01D92A83DB207E1F710E0C5E351
:1000A000D0E004C02197FE010E946A07C433D10743
:1000B000C9F70E9495030C9470070C940000AF924E
:1000C000BF92CF92DF92EF92FF920F931F93CF9345
:1000D000DF936C017B018B01040F151FEB015E01A7
:1000E000AE18BF08C017D10759F06991D601ED913C
:1000F000FC910190F081E02DC6010995892B79F7DB
:10010000C501DF91CF911F910F91FF90EF90DF908C
:10011000CF90BF90AF900895FC01538D448D252F53
:1001200030E0842F90E0821B930B541710F0CF9691
:10013000089501970895FC01918D828D981761F0C3
:10014000A28DAE0FBF2FB11D5D968C91928D9F5FDA
:100150009F73928F90E008958FEF9FEF0895FC01B9
:10016000918D828D981731F0828DE80FF11D858D6C
:1001700090E008958FEF9FEF0895FC01918D228DFF
:10018000892F90E0805C9F4F821B91098F73992784
:1001900008958BE391E00E94BD0021E0892B09F4D2
:1001A00020E0822F089580E090E0892B29F00E94C2
:1001B000C90081110C9400000895FC01A48DA80FC2
:1001C000B92FB11DA35ABF4F2C91848D90E0019699
:1001D0008F739927848FA689B7892C93A089B189B9
:1001E0008C91837080648C93938D848D981306C05A
:1001F0000288F389E02D80818F7D80830895EF92BE
:10020000FF920F931F93CF93DF93EC0181E0888FD0
:100210009B8D8C8D98131AC0E889F989808185FFA0
:1002200015C09FB7F894EE89FF896083E889F98942
:1002300080818370806480839FBF81E090E0DF9144
:10024000CF911F910F91FF90EF900895F62E0B8D97
:1002500010E00F5F1F4F0F731127E02E8C8D8E1152
:100260000CC00FB607FCFACFE889F989808185FFB9
:10027000F5CFCE010E94DD00F1CFEB8DEC0FFD2F0D
:10028000F11DE35AFF4FF0829FB7F8940B8FEA8974
:10029000FB8980818062CFCFCF93DF93EC01888D83
:1002A0008823B9F0AA89BB89E889F9898C9185FDF1
:1002B00003C0808186FD0DC00FB607FCF7CF8C917F
:1002C00085FFF2CF808185FFEDCFCE010E94DD005A
:1002D000E9CFDF91CF9108958E50806480937C00A8
:1002E00080917A00806480937A0080917A0086FD04
:1002F000FCCF809178009091790008953FB7F894F1
:100300008091230190912401A0912501B0912601B3
:1003100026B5A89B05C02F3F19F00196A11DB11D60
:100320003FBFBA2FA92F982F8827BC01CD01620F9C
:10033000711D811D911D42E0660F771F881F991F57
:100340004A95D1F708958F929F92AF92BF92CF9224
:10035000DF92EF92FF920E947E014B015C0184E6E6
:10036000C82ED12CE12CF12C0E947E01681979094C
:100370008A099B09683E734081059105A8F321E035
:10038000C21AD108E108F10888EE880E83E0981EB1
:10039000A11CB11CC114D104E104F10429F7FF90A0
:1003A000EF90DF90CF90BF90AF909F908F90089587
:1003B000FC0101900020E9F73197AF01481B590B70
:1003C000BC018BE391E00C945F008F929F92AF92FF
:1003D000BF920F931F93CF93DF93CDB7DEB7A19753
:1003E0000FB6F894DEBF0FBECDBF19A2423008F49D
:1003F0004AE08E010F5D1F4F842E912CB12CA12C51
:10040000A50194010E944807E62FB901CA01EA300C
:10041000F4F4E05DD801EE938D01232B242B252BE2
:1004200079F790E080E0109719F0CD010E94D80193
:10043000A1960FB6F894DEBF0FBECDBFDF91CF916E
:100440001F910F91BF90AF909F908F900895E95C9E
:10045000E1CF4F925F926F927F928F929F92AF9275
:10046000BF92CF92DF92EF92FF926B017C01AC01C1
:100470009B010E9443078823C1F082E191E00E9422
:10048000D8017C018EE191E00E94D8018E0D9F1D64
:10049000FF90EF90DF90CF90BF90AF909F908F90A4
:1004A0007F906F905F904F90089546015701E894B8
:1004B000B7F82FEF3FEF4FE75FE7C501B4010E94A8
:1004C000430781110DC02FEF3FEF4FE75FE7C501F5
:1004D000B4010E94790518161CF486E191E0CFCF93
:1004E0002FEF3FEF4FE75FE4C701B6010E94D1064F
:1004F00018161CF48AE191E0C2CF2FEF3FEF4FE7CF
:100500005FECC701B6010E94790587FDF3CF20E0BB
:1005100030E0A901C701B6010E947905B12CA12CD8
:1005200087FF0AC06DE28BE391E00E94FF005C014F
:10053000F7FAF094F7F8F0942AE037ED43EA5BE33A
:10054000C701B6010E940D052B013C010E94F00578
:100550006B017C010E941F069B01AC01C301B2012B
:100560000E940C052B013C014AE0C701B6010E9424
:10057000E5017C01EA0CFB1C6EE28BE391E00E943A
:10058000FF00E80EF91E20E030E040E251E4C30134
:10059000B2010E94D6062B013C010E94F0054B01DE
:1005A000B12CA12C4AE0C501B4010E94E501E80E7E
:1005B000F91EC501B4010E941F069B01AC01C301D5
:1005C000B2010E940C0520E030E040E251E40E94BC
:1005D000D6060E94F00590E080E04AE00E94E50126
:1005E000E80EF91E4FCF1F920F920FB60F921124F3
:1005F0002F933F934F935F936F937F938F939F932B
:10060000AF93BF93EF93FF938BE391E00E94DD00E4
:10061000FF91EF91BF91AF919F918F917F916F91DA
:100620005F914F913F912F910F900FBE0F901F90B0
:1006300018951F920F920FB60F9211242F938F933C
:100640009F93EF93FF93E0914B01F0914C018081D8
:10065000E0915101F091520182FD1BC09081809187
:1006600054018F5F8F7320915501821741F0E09103
:100670005401F0E0E55CFE4F958F80935401FF91AB
:10068000EF919F918F912F910F900FBE0F901F9020
:1006900018958081F4CF1F920F920FB60F921124FC
:1006A0002F933F938F939F93AF93BF938091270195
:1006B00090912801A0912901B0912A013091220145
:1006C00023E0230F2D3758F50196A11DB11D20936E
:1006D00022018093270190932801A0932901B093D0
:1006E0002A018091230190912401A0912501B091CC
:1006F00026010196A11DB11D809323019093240131
:10070000A0932501B0932601BF91AF919F918F9146
:100710003F912F910F900FBE0F901F90189526E8D4
:10072000230F0296A11DB11DD2CF789484B58260AB
:1007300084BD84B5816084BD85B5826085BD85B585
:10074000816085BD80916E00816080936E00109203
:10075000810080918100826080938100809181007E
:10076000816080938100809180008160809380000F
:100770008091B10084608093B1008091B00081606D
:100780008093B00080917A00846080937A00809199
:100790007A00826080937A0080917A0081608093F1
:1007A0007A0080917A00806880937A001092C1006C
:1007B000E0914B01F0914C0182E08083E091470190
:1007C000F09148011082E0914901F0914A018FECCB
:1007D000808310925301E0914F01F091500186E027
:1007E0008083E0914D01F0914E0180818061808392
:1007F000E0914D01F0914E01808188608083E0910D
:100800004D01F0914E01808180688083E0914D011F
:10081000F0914E0180818F7D808300E010E02FB742
:10082000F8948091270190912801A0912901B0911D
:100830002A012FBF40913701509138016091390151
:1008400070913A01841B950BA60BB70B0B97A10572
:10085000B10508F4A8C02FB7F894809127019091B2
:100860002801A0912901B0912A012FBF809337015F
:1008700090933801A0933901B0933A018EE00E9421
:100880006C017C0190933401809333018FE00E94CE
:100890006C015C01909336018093350180E10E94E8
:1008A0006C01EC019093380180933701B701FF0C84
:1008B000880B990B0E94210620E030E040EA50E4CA
:1008C0000E94D60620E030EC4FE754E40E947E05FB
:1008D00020E030E0A9010E940D056B017C01C0926F
:1008E0002B01D0922C01E0922D01F0922E01B50146
:1008F000BB0C880B990B0E94210620E030E040EAF7
:1009000050E40E94D60620E030EC4FE754E40E9409
:100910007E0520E030E0A9010E940D0560932F01C3
:10092000709330018093310190933201BE01DD0F4D
:10093000880B990B0E94210620E030E040EA50E449
:100940000E94D60620E030EC4FE754E40E947E057A
:1009500020E030E0A9010E940D05609333017093FF
:1009600034018093350190933601C701B6010E948E
:1009700029020E94A30160912F01709130018091A2
:100980003101909132010E9429020E94A3016091DD
:1009900033017091340180913501909136010E94AC
:1009A00029020E94A3010115110509F438CF0E9404
:1009B000C900882309F433CF0E94000030CFEBE355
:1009C000F1E01382128288EE93E0A0E0B0E084832D
:1009D0009583A683B78384E091E09183808385EC3F
:1009E00090E09587848784EC90E09787868780ECF9
:1009F00090E0918B808B81EC90E0938B828B82ECEA
:100A000090E0958B848B86EC90E0978B868B118E93
:100A1000128E138E148E08955058BB27AA270E9459
:100A200024050C9497060E94890638F00E949006CF
:100A300020F039F49F3F19F426F40C9486060EF446
:100A4000E095E7FB0C948006E92F0E94A80658F376
:100A5000BA17620773078407950720F079F4A6F5A3
:100A60000C94CA060EF4E0950B2EBA2FA02D0B01A4
:100A7000B90190010C01CA01A0011124FF27591BE3
:100A800099F0593F50F4503E68F11A16F040A22FE9
:100A9000232F342F4427585FF3CF4695379527955A
:100AA000A795F0405395C9F77EF41F16BA0B620B59
:100AB000730B840BBAF09150A1F0FF0FBB1F661FA0
:100AC000771F881FC2F70EC0BA0F621F731F841FE3
:100AD00048F4879577956795B795F7959E3F08F009
:100AE000B0CF9395880F08F09927EE0F97958795CB
:100AF00008950E945C0608F481E008950E94920522
:100B00000C9497060E94900658F00E94890640F0C7
:100B100029F45F3F29F00C94800651110C94CB0608
:100B20000C9486060E94A80668F39923B1F3552316
:100B300091F3951B550BBB27AA27621773078407F0
:100B400038F09F5F5F4F220F331F441FAA1FA9F386
:100B500035D00E2E3AF0E0E832D091505040E69574
:100B6000001CCAF72BD0FE2F29D0660F771F881FD5
:100B7000BB1F261737074807AB07B0E809F0BB0BC8
:100B8000802DBF01FF2793585F4F3AF09E3F5105DC
:100B900078F00C9480060C94CB065F3FE4F3983E0B
:100BA000D4F3869577956795B795F7959F5FC9F7C5
:100BB000880F911D9695879597F90895E1E0660F46
:100BC000771F881FBB1F621773078407BA0720F0BF
:100BD000621B730B840BBA0BEE1F88F7E095089528
:100BE0000E94B00688F09F5798F0B92F9927B75107
:100BF000B0F0E1F0660F771F881F991F1AF0BA95C1
:100C0000C9F714C0B13091F00E94CA06B1E008954E
:100C10000C94CA06672F782F8827B85F39F0B93F40
:100C2000CCF3869577956795B395D9F73EF4909573
:100C30008095709561957F4F8F4F9F4F0895E894F1
:100C400009C097FB3EF490958095709561957F4F14
:100C50008F4F9F4F9923A9F0F92F96E9BB279395C2
:100C6000F695879577956795B795F111F8CFFAF4D2
:100C7000BB0F11F460FF1BC06F5F7F4F8F4F9F4F03
:100C800016C0882311F096E911C0772321F09EE861
:100C9000872F762F05C0662371F096E8862F70E0C7
:100CA00060E02AF09A95660F771F881FDAF7880FA1
:100CB0009695879597F90895990F0008550FAA0BF7
:100CC000E0E8FEEF16161706E807F907C0F012165F
:100CD0001306E407F50798F0621B730B840B950B62
:100CE00039F40A2661F0232B242B252B21F40895B7
:100CF0000A2609F4A140A6958FEF811D811D089554
:100D000097F99F6780E870E060E008959FEF80ECBE
:100D1000089500240A941616170618060906089561
:100D200000240A9412161306140605060895092EC7
:100D30000394000C11F4882352F0BB0F40F4BF2B36
:100D400011F460FF04C06F5F7F4F8F4F9F4F089576
:100D500057FD9058440F551F59F05F3F71F047956C
:100D6000880F97FB991F61F09F3F79F08795089551
:100D7000121613061406551FF2CF4695F1DF08C070
:100D8000161617061806991FF1CF8695710561058D
:100D900008940895E894BB2766277727CB0197F935
:100DA00008950E945C0608F48FEF08950E94E906FA
:100DB0000C9497060E94890638F00E94900620F055
:100DC000952311F00C9480060C94860611240C9443
:100DD000CB060E94A80670F3959FC1F3950F50E0D3
:100DE000551F629FF001729FBB27F00DB11D639FDD
:100DF000AA27F00DB11DAA1F649F6627B00DA11D83
:100E0000661F829F2227B00DA11D621F739FB00D28
:100E1000A11D621F839FA00D611D221F749F332798
:100E2000A00D611D231F849F600D211D822F762F31
:100E30006A2F11249F5750409AF0F1F088234AF00E
:100E4000EE0FFF1FBB1F661F771F881F915050407A
:100E5000A9F79E3F510580F00C9480060C94CB06B8
:100E60005F3FE4F3983ED4F3869577956795B79501
:100E7000F795E7959F5FC1F7FE2B880F911D96951B
:100E8000879597F908950E945C06880B990B089541
:100E9000A1E21A2EAA1BBB1BFD010DC0AA1FBB1F7E
:100EA000EE1FFF1FA217B307E407F50720F0A21BF0
:100EB000B30BE40BF50B661F771F881F991F1A945D
:100EC00069F760957095809590959B01AC01BD0187
:100ED000CF010895EE0FFF1F0590F491E02D0994C6
:040EE000F894FFCFB4
:100EE40000000000FF005F008C004C01BD009B006F
:100EF400AF006E616E00696E66006F7666000D0A63
:020F04000000EB
:00000001FF
