:020000040000FA
:100000000C9462000C9431050C940A050C948A003F
:100010000C948A000C948A000C948A000C948A0038
:100020000C948A000C948A000C948A000C948A0028
:100030000C948A000C948A000C948A000C948A0018
:100040000C94C0040C948A000C948E040C946804E4
:100050000C948A000C948A000C948A000C948A00F8
:100060000C948A000C948A000000000024002700F1
:100070002A0000000000250028002B0000000000DE
:1000800023002600290004040404040404040202DA
:100090000202020203030303030301020408102007
:1000A0004080010204081020010204081020000012
:1000B0000008000201000003040700000000000027
:1000C0000000580511241FBECFEFD8E0DEBFCDBF22
:1000D00011E0A0E0B1E0E4E8F8E102C005900D9283
:1000E000A834B107D9F722E0A8E4B1E001C01D921D
:1000F000AF37B207E1F710E0C2E6D0E004C02197C5
:10010000FE010E943A0CC136D107C9F70E94E505ED
:100110000C94400C0C94000096E0899FD0011124AF
:10012000A05FBD4F90967C936E935F9791E0919600
:100130009C939197E0917D02F0917E0290917C02D8
:10014000992339F0309751F0811108C080912C0229
:100150000994309719F05C968C91FACF0895CF925C
:10016000DF92EF92FF920F931F9396E0899FF00129
:100170001124E05FFD4F11A2278D30A12130310500
:1001800051F178F02230310509F451C023303105A6
:1001900009F452C01F910F91FF90EF90DF90CF9024
:1001A00008956623B9F361E070E00E948C002FB7D8
:1001B000F89480916F0190917001A0917101B091BC
:1001C00072012FBF8093680290936902A0936A0224
:1001D000B0936B02DFCF9FB7F894C0906F01D090BF
:1001E0007001E0907101F09072019FBF0091680270
:1001F0001091690220916A0230916B02C01AD10AF3
:10020000E20AF30A00917A0210917B0230E020E0CA
:100210000C151D052E053F0550F462E070E01F919E
:100220000F91FF90EF90DF90CF900C948C006111B4
:10023000B1CF63E070E0F3CF70E060E0F0CFAF9259
:10024000BF92CF92DF92EF92FF920F931F93CF93C3
:10025000DF936C017B018B01040F151FEB015E0125
:10026000AE18BF08C017D10759F06991D601ED91BA
:10027000FC910190F081E02DC6010995892B79F759
:10028000C501DF91CF911F910F91FF90EF90DF900B
:10029000CF90BF90AF900895FC01538D448D252FD2
:1002A00030E0842F90E0821B930B541710F0CF9610
:1002B000089501970895FC01918D828D981761F042
:1002C000A28DAE0FBF2FB11D5D968C91928D9F5F59
:1002D0009F73928F90E008958FEF9FEF0895FC0138
:1002E000918D828D981731F0828DE80FF11D858DEB
:1002F00090E008958FEF9FEF0895FC01918D228D7E
:10030000892F90E0805C9F4F821B91098F73992702
:10031000089583E791E00E947D0121E0892B09F493
:1003200020E0822F089580E090E0892B29F00E9440
:10033000890181110C9400000895FC01A48DA80F7F
:10034000B92FB11DA35ABF4F2C91848D90E0019617
:100350008F739927848FA689B7892C93A089B18937
:100360008C91837080648C93938D848D981306C0D8
:100370000288F389E02D80818F7D80830895EF923C
:10038000FF920F931F93CF93DF93EC0181E0888F4F
:100390009B8D8C8D98131AC0E889F989808185FF1F
:1003A00015C09FB7F894EE89FF896083E889F989C1
:1003B00080818370806480839FBF81E090E0DF91C3
:1003C000CF911F910F91FF90EF900895F62E0B8D16
:1003D00010E00F5F1F4F0F731127E02E8C8D8E11D1
:1003E0000CC00FB607FCFACFE889F989808185FF38
:1003F000F5CFCE010E949D01F1CFEB8DEC0FFD2FCB
:10040000F11DE35AFF4FF0829FB7F8940B8FEA89F2
:10041000FB8980818062CFCFCF93DF93EC01888D01
:100420008823B9F0AA89BB89E889F9898C9185FD6F
:1004300003C0808186FD0DC00FB607FCF7CF8C91FD
:1004400085FFF2CF808185FFEDCFCE010E949D0117
:10045000E9CFDF91CF910895833081F028F4813086
:1004600099F08230A9F008958730A9F08830C9F05A
:100470008430B1F4809180008F7D03C08091800032
:100480008F7780938000089584B58F7784BD089519
:1004900084B58F7DFBCF8091B0008F778093B000C3
:1004A00008958091B0008F7DF9CFCF93DF93282FEF
:1004B00030E0F901E255FF4F8491F901E656FF4F14
:1004C000D491F901EA57FF4FC491CC23A1F08111D7
:1004D0000E942C02EC2FF0E0EE0FFF1FE458FF4FBC
:1004E000A591B491EC91ED2381E090E009F480E0D6
:1004F000DF91CF91089580E090E0FACF862F0C94A1
:1005000055021F93CF93DF93282F30E0F901E25576
:10051000FF4F8491F901E656FF4FD491F901EA5754
:10052000FF4FC491CC23A9F0162F81110E942C02F9
:10053000EC2FF0E0EE0FFF1FEE58FF4FA591B491A6
:100540008FB7F894EC91111108C0D095DE23DC939D
:100550008FBFDF91CF911F910895DE2BF8CF862FAB
:10056000642F0C948102CF93DF9390E0FC01E65658
:10057000FF4F24918A579F4FFC0184918823C9F033
:1005800090E0880F991FFC01E859FF4FA591B491A5
:10059000FC01EE58FF4FC591D49161110DC09FB77A
:1005A000F8948C91209582238C938881282328832A
:1005B0009FBFDF91CF910895623051F49FB7F894B7
:1005C0003C91822F809583238C93E8812E2BEFCF53
:1005D0008FB7F894EC912E2B2C938FBFEACF862FF8
:1005E000642F0C94B3023FB7F89480914901909125
:1005F0004A01A0914B01B0914C0126B5A89B05C0C2
:100600002F3F19F00196A11DB11D3FBFBA2FA92F91
:10061000982F8827BC01CD01620F711D811D911D8E
:1006200042E0660F771F881F991F4A95D1F70895FA
:10063000089560914D0170914E0180914F0190910C
:1006400050010E94C00A6230710548F0660F771FA2
:10065000660F771F65507109CB010197F1F761E0D3
:1006600083E00E9481028BE990E00197F1F760E05E
:1006700083E00C948102FC0101900020E9F731979E
:10068000AF01481B590BBC0183E791E00C941F019B
:100690008F929F92AF92BF920F931F93CF93DF934E
:1006A000CDB7DEB7A1970FB6F894DEBF0FBECDBFB2
:1006B00019A2423008F44AE08E010F5D1F4F842ECC
:1006C000912CB12CA12CA50194010E94180CE62FAD
:1006D000B901CA01EA30F4F4E05DD801EE938D016E
:1006E000232B242B252B79F790E080E0109719F02D
:1006F000CD010E943B03A1960FB6F894DEBF0FBE5A
:10070000CDBFDF91CF911F910F91BF90AF909F9080
:100710008F900895E95CE1CF4F925F926F927F9244
:100720008F929F92AF92BF92CF92DF92EF92FF9201
:100730000F931F93CF936B017C01742EAC019B012F
:100740000E94130C882399F088E391E0CF911F91C8
:100750000F91FF90EF90DF90CF90BF90AF909F9060
:100760008F907F906F905F904F900C943B03460169
:100770005701E894B7F82FEF3FEF4FE75FE7C50168
:10078000B4010E94130C81110DC02FEF3FEF4FE712
:100790005FE7C501B4010E94490A18161CF48CE3F6
:1007A00091E0D4CF2FEF3FEF4FE75FE4C701B601F1
:1007B0000E94A10B18161CF480E491E0C7CF2FEF24
:1007C0003FEF4FE75FECC701B6010E94490A87FD82
:1007D000F3CF20E030E0A901C701B6010E94490A29
:1007E00010E000E087FF0AC06DE283E791E00E941D
:1007F000BF018C01F7FAF094F7F8F094C0E060E0E4
:1008000070E080E09FE37C1641F020E030E040E2C1
:1008100051E40E944E0ACF5FF6CFA70196010E94D5
:10082000DD092B013C010E94C00A4B015C014AE03A
:100830000E9448037C01E00EF11ECC23C1F1C501EA
:10084000B4010E94EF0A9B01AC01C301B2010E94F6
:10085000DC094B015C016EE283E791E00E94BF017D
:10086000E80EF91EC15018F120E030E040E251E4FA
:10087000C501B4010E94A60B2B013C010E94C00AD5
:100880004B01B12CA12C4AE0C501B4010E944803E0
:10089000E80EF91EC501B4010E94EF0A9B01AC01EC
:1008A000C301B2010E94DC094B015C01DBCFC7012F
:1008B000CF911F910F91FF90EF90DF90CF90BF905D
:1008C000AF909F908F907F906F905F904F90089522
:1008D0001F920F920FB60F9211242F933F934F93B5
:1008E0005F936F937F938F939F93AF93BF93EF9398
:1008F000FF9383E791E00E949D01FF91EF91BF91EB
:10090000AF919F918F917F916F915F914F913F91A7
:100910002F910F900FBE0F901F9018951F920F925E
:100920000FB60F9211242F938F939F93EF93FF9302
:10093000E0918301F09184018081E0918901F0913F
:100940008A0182FD1BC0908180918C018F5F8F7323
:1009500020918D01821741F0E0918C01F0E0ED587B
:10096000FE4F958F80938C01FF91EF919F918F9116
:100970002F910F900FBE0F901F9018958081F4CF8C
:100980001F920F920FB60F9211242F933F938F93C4
:100990009F93AF93BF9380916F0190917001A0914D
:1009A0007101B09172013091480123E0230F2D377E
:1009B00058F50196A11DB11D2093480180936F0148
:1009C00090937001A0937101B093720180914901DD
:1009D00090914A01A0914B01B0914C010196A11D4B
:1009E000B11D8093490190934A01A0934B01B093AC
:1009F0004C01BF91AF919F918F913F912F910F909B
:100A00000FBE0F901F90189526E8230F0296A11D88
:100A1000B11DD2CF1F920F920FB60F9211242F93B8
:100A20003F934F935F936F937F938F939F93AF9376
:100A3000BF93EF93FF93E0910201F09103010995B9
:100A4000FF91EF91BF91AF919F918F917F916F91A6
:100A50005F914F913F912F910F900FBE0F901F907C
:100A600018951F920F920FB60F9211242F933F9358
:100A70004F935F936F937F938F939F93AF93BF93A6
:100A8000EF93FF93E0910001F09101010995FF912F
:100A9000EF91BF91AF919F918F917F916F915F91F6
:100AA0004F913F912F910F900FBE0F901F9018956F
:100AB000109276011092750188EE93E0A0E0B0E00C
:100AC0008093770190937801A0937901B0937A0194
:100AD00080E291E0909374018093730185EC90E043
:100AE0009093800180937F0184EC90E09093820149
:100AF0008093810180EC90E0909384018093830146
:100B000081EC90E0909386018093850182EC90E0E7
:100B1000909388018093870186EC90E090938A01FE
:100B20008093890110928C0110928D0110928E0198
:100B300010928F011092120210921602109215025A
:100B40001092170282E391E09093110280931002B9
:100B5000ECE2F2E01082148213821582369682E073
:100B6000E836F807B9F788E091E090937302809334
:100B7000720284E091E0909375028093740284E0A5
:100B800080937602809377028CE091E090937102DB
:100B9000809370028AE090E09093790280937802CB
:100BA00084EF91E090937B0280937A0210927E0210
:100BB00010927D0210926C0210926D0210926E02E1
:100BC00010926F0210927C020895CF93DF93CDB7FD
:100BD000DEB728970FB6F894DEBF0FBECDBF78946E
:100BE00084B5826084BD84B5816084BD85B5826032
:100BF00085BD85B5816085BD80916E0081608093E3
:100C00006E0010928100809181008260809381004B
:100C1000809181008160809381008091800081605B
:100C2000809380008091B10084608093B1008091B6
:100C3000B00081608093B00080917A0084608093DE
:100C40007A0080917A00826080937A0080917A00A5
:100C5000816080937A0080917A00806880937A0026
:100C60001092C100E0918301F091840182E08083C1
:100C7000E0917F01F09180011082E0918101F0917B
:100C800082018FEC808310928B01E0918701F091BB
:100C9000880186E08083E0918501F0918601808162
:100CA00080618083E0918501F09186018081886078
:100CB0008083E0918501F091860180818068808346
:100CC000E0918501F091860180818F7D808361E0D4
:100CD00083E00E94B30260E08EE00E94B30262E013
:100CE00082E00E94B30289E193E090930101809336
:100CF0000001809169008C7F826080936900E89A8E
:100D00006CE4262E62E0362E81E080937C028FB761
:100D1000F89440916F015091700160917101709150
:100D200072018FBF80916C0290916D02A0916E0252
:100D3000B0916F02481B590B6A0B7B0B80917802B4
:100D400090917902B0E0A0E084179507A607B70755
:100D500008F048C11982809176022981281770F421
:100D6000E0917202F0917302E20FF11D62E0808166
:100D70000E94B30239813F5F3983EDCFB12C80915E
:100D80007702B81608F074C00B2D10E0E0917402E1
:100D9000F0917502E00FF11F61E080810E94B302C3
:100DA000E0917402F0917502E00FF11F60E0808124
:100DB0000E94810281E090E0A0E0B0E00B2C04C032
:100DC000880F991FAA1FBB1F0A94D2F76C017C01E0
:100DD000E094F094A12C80917602A81690F58A2DCB
:100DE00090E09A838983E0917202F0917302DC01B2
:100DF000EA0FFB1F80810E945502E981FA81349637
:100E0000FA83E983892B61F4EE0FFF1FE05FFD4F4A
:100E1000808191818C299D2991838083A394DBCF4C
:100E200029813A81220F331F205F3D4F3A83298366
:100E3000D9018D919C9111978E219F218D939C9327
:100E4000EDCFE0917402F0917502E00FF11F61E0C7
:100E500080810E9481028091740290917502080F36
:100E6000191F60E0F80180810E94B302B39487CF1C
:100E700030E1C32E32E0D32EDA82C9828FEF9FEFAA
:100E8000A981BA815F962D913C919097232B49F4CB
:100E90005C961C925C975E969C938E935D97919660
:100EA0001C92E981FA813696FA83E9832E163F0671
:100EB00039F7F12C26E0B22E80917602F81608F070
:100EC00050C0E12C0F2D10E0000F111F085E1D4FC8
:100ED00020917702E21608F042C0D8016D917C9112
:100EE0000E2C02C0769567950A94E2F7F29E900167
:100EF00011242E0D311DE0E1F2E080E0458D568D8C
:100F00002417350709F417C28F5F36968A30B1F778
:100F100060FF23C0E0E1F2E090E080E0448D411109
:100F200017C0E0917002F0917102E20FF31F60812F
:100F3000B89EF001B99EF00D1124E05FFD4F648F63
:100F4000368F258F10A2178E61E00E94AF0005C07A
:100F5000019636968A30910509F7E394B9CFF39458
:100F6000ABCF80E0F60191A19111892FF6E0CF0E71
:100F7000D11C29813A81C216D306A1F79FB7F894F4
:100F800040916F01509170016091710170917201F7
:100F90009FBF40936C0250936D0260936E027093FA
:100FA0006F028823F9F0809131028823D9F0809173
:100FB0002F02909130020197A9F480912C02803386
:100FC00009F467C1813309F070C180E090E0A0E8C6
:100FD000BFE380936B0190936C01A0936D01B0937C
:100FE0006E015FC110927C0280916A01882309F42E
:100FF00076C08091650190916601A0916701B091E2
:1010000068018093610190936201A0936301B093A2
:10101000640180915D0190915E01A0915F01B091AA
:1010200060018093650190936601A0936701B0937E
:1010300068018091590190915A01A0915B01B09192
:101040005C0180935D0190935E01A0935F01B0937A
:1010500060018091550190915601A0915701B09186
:1010600058018093590190935A01A0935B01B0936A
:101070005C0180916B0190916C01A0916D01B09128
:101080006E018093550190935601A0935701B09340
:10109000580110926A010E94F3024B015C0182E345
:1010A000C82ED12CE12CF12C0E94F3026819790989
:1010B0008A099B09683E734081059105A8F391E078
:1010C000C91AD108E108F108A8EE8A0EA3E09A1E19
:1010D000A11CB11CC114D104E104F10429F78091D1
:1010E0006901882309F4C8C04090590150905A0101
:1010F00060905B0170905C01809155019091560168
:10110000A0915701B091580189839A83AB83BC8326
:1011100080915D0190915E01A0915F01B0916001AD
:101120008D839E83AF83B887809065019090660120
:10113000A0906701B0906801C0906101D0906201F9
:10114000E0906301F090640120E030E040E251E47F
:10115000C301B2010E94490A8111EFC020E030E0D2
:1011600048EC52E4C701B6010E94A60B6B017C015A
:1011700020E030E040E251E4C501B4010E94A60B3A
:101180009B01AC01C701B6010E94DD092D813E81A2
:101190004F8158850E94DD096B017C0120E030E021
:1011A00040E251E469817A818B819C810E944E0AE0
:1011B0009B01AC01C701B6010E94DD09609351019A
:1011C00070935201809353019093540160915101A7
:1011D00070915201809153019091540142E00E941C
:1011E0008C0384E491E00E943B032CE137EC41E363
:1011F00052E460915101709152018091530190919C
:1012000054010E94A60B60934D0170934E01809390
:101210004F01909350011092550110925601109277
:101220005701109258011092590110925A011092D0
:101230005B0110925C0110925D0110925E011092B0
:101240005F01109260011092650110926601109288
:101250006701109268011092610110926201109270
:1012600063011092640142E00E948C0384E491E0E7
:101270000E943B031092690180E090E0892B09F401
:1012800043CD0E948901882309F43ACD0E940000D1
:1012900037CD10926B0110926C0110926D0110927B
:1012A0006E0181E080936A019FCE823329F480E051
:1012B00090E0A0E0B0E48DCE833329F480E090E0AC
:1012C000A0E4B0E486CE843329F480E090E0A0E886
:1012D000B0E47FCE853329F480E090E0A0EAB0E46A
:1012E00078CE863329F480E090E0A0ECB0E471CEB3
:1012F000873329F480E090E0A0EEB0E46ACE883332
:1013000029F480E090E0A0E0B1E463CE893329F4D1
:1013100080E090E0A0E1B1E45CCE823429F480E08A
:1013200090E0A0E2B1E455CE833409F05DCE81E0D7
:101330008093690159CE617008CE20E030E040E230
:1013400051E4C301B2010E94A60B29813A814B816D
:101350005C810E94DD092B013C0120E030E048EC7B
:1013600052E46D817E818F8198850E94A60B9B013E
:10137000AC01C301B2010E94DD092B013C0120E058
:1013800030E04AE754E4C501B4010E94A60B9B017A
:10139000AC01C301B2010E94DD094B015C0120E0F8
:1013A00030E44CE156E4C701B6010E94A60B9B0154
:1013B000AC01C501B40100CF5058BB27AA270E9439
:1013C000F4090C94670B0E94590B38F00E94600BD3
:1013D00020F039F49F3F19F426F40C94560B0EF4C8
:1013E000E095E7FB0C94500BE92F0E94780B58F323
:1013F000BA17620773078407950720F079F4A6F5FA
:101400000C949A0B0EF4E0950B2EBA2FA02D0B0125
:10141000B90190010C01CA01A0011124FF27591B39
:1014200099F0593F50F4503E68F11A16F040A22F3F
:10143000232F342F4427585FF3CF469537952795B0
:10144000A795F0405395C9F77EF41F16BA0B620BAF
:10145000730B840BBAF09150A1F0FF0FBB1F661FF6
:10146000771F881FC2F70EC0BA0F621F731F841F39
:1014700048F4879577956795B795F7959E3F08F05F
:10148000B0CF9395880F08F09927EE0F9795879521
:1014900008950E942C0B08F481E008950E94620ACE
:1014A0000C94670B0E94600B58F00E94590B40F09F
:1014B00029F45F3F29F00C94500B51110C949B0BB5
:1014C0000C94560B0E94780B68F39923B1F35523C3
:1014D00091F3951B550BBB27AA2762177307840747
:1014E00038F09F5F5F4F220F331F441FAA1FA9F3DD
:1014F00035D00E2E3AF0E0E832D091505040E695CB
:10150000001CCAF72BD0FE2F29D0660F771F881F2B
:10151000BB1F261737074807AB07B0E809F0BB0B1E
:10152000802DBF01FF2793585F4F3AF09E3F510532
:1015300078F00C94500B0C949B0B5F3FE4F3983EB7
:10154000D4F3869577956795B795F7959F5FC9F71B
:10155000880F911D9695879597F90895E1E0660F9C
:10156000771F881FBB1F621773078407BA0720F015
:10157000621B730B840BBA0BEE1F88F7E09508957E
:101580000E94800B88F09F5798F0B92F9927B75188
:10159000B0F0E1F0660F771F881F991F1AF0BA9517
:1015A000C9F714C0B13091F00E949A0BB1E00895D0
:1015B0000C949A0B672F782F8827B85F39F0B93FC2
:1015C000CCF3869577956795B395D9F73EF49095CA
:1015D0008095709561957F4F8F4F9F4F0895E89448
:1015E00009C097FB3EF490958095709561957F4F6B
:1015F0008F4F9F4F9923A9F0F92F96E9BB27939519
:10160000F695879577956795B795F111F8CFFAF428
:10161000BB0F11F460FF1BC06F5F7F4F8F4F9F4F59
:1016200016C0882311F096E911C0772321F09EE8B7
:10163000872F762F05C0662371F096E8862F70E01D
:1016400060E02AF09A95660F771F881FDAF7880FF7
:101650009695879597F90895990F0008550FAA0B4D
:10166000E0E8FEEF16161706E807F907C0F01216B5
:101670001306E407F50798F0621B730B840B950BB8
:1016800039F40A2661F0232B242B252B21F408950D
:101690000A2609F4A140A6958FEF811D811D0895AA
:1016A00097F99F6780E870E060E008959FEF80EC15
:1016B000089500240A9416161706180609060895B8
:1016C00000240A9412161306140605060895092E1E
:1016D0000394000C11F4882352F0BB0F40F4BF2B8D
:1016E00011F460FF04C06F5F7F4F8F4F9F4F0895CD
:1016F00057FD9058440F551F59F05F3F71F04795C3
:10170000880F97FB991F61F09F3F79F087950895A7
:10171000121613061406551FF2CF4695F1DF08C0C6
:10172000161617061806991FF1CF869571056105E3
:1017300008940895E894BB2766277727CB0197F98B
:1017400008950E942C0B08F48FEF08950E94B90BA6
:101750000C94670B0E94590B38F00E94600B20F02C
:10176000952311F00C94500B0C94560B11240C94EF
:101770009B0B0E94780B70F3959FC1F3950F50E07F
:10178000551F629FF001729FBB27F00DB11D639F33
:10179000AA27F00DB11DAA1F649F6627B00DA11DD9
:1017A000661F829F2227B00DA11D621F739FB00D7F
:1017B000A11D621F839FA00D611D221F749F3327EF
:1017C000A00D611D231F849F600D211D822F762F88
:1017D0006A2F11249F5750409AF0F1F088234AF065
:1017E000EE0FFF1FBB1F661F771F881F91505040D1
:1017F000A9F79E3F510580F00C94500B0C949B0B65
:101800005F3FE4F3983ED4F3869577956795B79557
:10181000F795E7959F5FC1F7FE2B880F911D969571
:10182000879597F908950E942C0B880B990B0895C2
:10183000A1E21A2EAA1BBB1BFD010DC0AA1FBB1FD4
:10184000EE1FFF1FA217B307E407F50720F0A21B46
:10185000B30BE40BF50B661F771F881F991F1A94B3
:1018600069F760957095809590959B01AC01BD01DD
:10187000CF010895EE0FFF1F0590F491E02D09941C
:10188000F894FFCF1803180305040D0C0908070688
:101890003132332B3435362D3738392A4230432F05
:1018A00000000000BF011F014C010C027D015B0123
:1018B0006F0100000000EF02AF027E026E616E0059
:0C18C000696E66006F7666000D0A00007D
:107E0000112484B714BE81FFF0D085E080938100F7
:107E100082E08093C00088E18093C10086E0809377
:107E2000C20080E18093C4008EE0C9D0259A86E02C
:107E300020E33CEF91E0309385002093840096BBD3
:107E4000B09BFECF1D9AA8958150A9F7CC24DD24C4
:107E500088248394B5E0AB2EA1E19A2EF3E0BF2EE7
:107E6000A2D0813461F49FD0082FAFD0023811F036
:107E7000013811F484E001C083E08DD089C08234E0
:107E800011F484E103C0853419F485E0A6D080C0E4
:107E9000853579F488D0E82EFF2485D0082F10E0AE
:107EA000102F00270E291F29000F111F8ED06801E7
:107EB0006FC0863521F484E090D080E0DECF843638
:107EC00009F040C070D06FD0082F6DD080E0C81688
:107ED00080E7D80618F4F601B7BEE895C0E0D1E017
:107EE00062D089930C17E1F7F0E0CF16F0E7DF06D8
:107EF00018F0F601B7BEE89568D007B600FCFDCFD4
:107F0000A601A0E0B1E02C9130E011968C91119780
:107F100090E0982F8827822B932B1296FA010C0160
:107F200087BEE89511244E5F5F4FF1E0A038BF0790
:107F300051F7F601A7BEE89507B600FCFDCF97BE46
:107F4000E89526C08437B1F42ED02DD0F82E2BD052
:107F50003CD0F601EF2C8F010F5F1F4F84911BD097
:107F6000EA94F801C1F70894C11CD11CFA94CF0C13
:107F7000D11C0EC0853739F428D08EE10CD085E9AC
:107F80000AD08FE07ACF813511F488E018D01DD067
:107F900080E101D065CF982F8091C00085FFFCCF94
:107FA0009093C60008958091C00087FFFCCF809118
:107FB000C00084FD01C0A8958091C6000895E0E648
:107FC000F0E098E1908380830895EDDF803219F02E
:107FD00088E0F5DFFFCF84E1DECF1F93182FE3DFCA
:107FE0001150E9F7F2DF1F91089580E0E8DFEE27F6
:047FF000FF270994CA
:027FFE00040479
:00000001FF
